:040000000C94091340
:04002C000C941C9A7A
:040050000C94DD9798
:04005C000C945A970F
:040064000C94F5986B
:04006C000C9428992F
:040074000C94DD9A71
:040090000C943A99F9
:04009C000C94A06CB4
:0400CC000C944F99A8
:0800D4000C9498990C94DD993D
:1400E0000C94F299B71EE81E141F0D204E205720022113216A
:1400F4001C21572176218721AD24AD24AD24AD24AD24AD241E
:14010800AD24AD24581F6C1F801F891F9A1FB11FDC1FE41F71
:14011C00F81F0420F121FC21182257237423AD24AD248E23C7
:14013000392492249E24DD23BB23CC23AD24AD24AD24AD24D5
:14014400AD24AD240F22AD24AD24AD24AD24AD24AD24AD241D
:14015800AD24AD2424222D2288229E22AD24A722CD22E12266
:14016C00EA224B234532453279324833483348334833483305
:140180004833BF32BF32BF32BF328B328B32A432A43248338B
:140194004833F732F732F732F732F732F732F7324833F73219
:1401A800F732F73213333333EE33343448345A346E347B3461
:1401BC008F34A034B434C034D434F5340F35303555356335C0
:1401D0008635CA35D335DF35FE35113622364A365E366736C2
:1401E4007B3686369A36A336B736CB36DE36F236083B3E3B0B
:1401F8004E3BAF3BD63BFD3B0E3C3F3C553C6C3C8A3C9C3C9B
:14020C00C44FC44FC44FAA3CC63CD73CF73C0A3D173D323D6D
:14022000403D4D3DC53DCF3DEB3DF53D233EF2403A414E41BE
:1402340070417F41EA4107421742FC42104352425F42C44F9F
:14024800C44F69427B428842A642B342C942D942E842CB4421
:14025C00F7443F45494553456245794586459945AE45BC45A7
:14027000F3453146434654466146CF46E746F446C44F7046BC
:140284007D468F46AB46B846C54652475B4869489B48E448D8
:14029800FC4825493D49C44FC44F49495A496B497F498F496B
:1402AC00734A934AA74AAF4A8B4A214E324E3E4E4A4E5E4E26
:1402C000714EBF4E7D4E8E4E9F4E254F4A4F634FD34EF24EAA
:1402D400054FFF4F09501E50335048505D50725087509C5060
:1402E800B150C650DB50F0500551555158515B515E516151CE
:1402FC00645167516A516D5170517351765179517C51A05134
:14031000A951A951A951A951A951A951AC51AF51B251A35109
:14032400A651A951CF51D851D851D851D851D851D851DB5192
:14033800DE51E151D251D551D851065208520A520C520E5212
:14034C001052125214521652165218521A521C521E5241525A
:1403600043524552475249524B524D524F5251525152515263
:14037400535255525752165B545B685B735BED5BF85B005CD8
:14038800335C4A5CAA5CD95CE45CFB5C365D5F5D6B5DA45D42
:14039C00E961505E1A5F5E6080608C60AA60B560BE60CA60EB
:1403B000E660F66002611B612A61366165778C7793779A77A2
:1403C400A177A877AF77B677BD77C477CB77D277127820787F
:1403D8002E788C7A46788C7A8C7A917898789F78A6788C7A47
:1403EC008C7A8C7A8C7A8C7A8C7AAD78A67CC07FAD7CB47C00
:14040000BB7CC27CC97CD07CDD7CEA7C2C7D5E7D6C7D7A7DBF
:14041400C57DCF7DC07FC07FF07DF77DFE7D057E0C7E137ECE
:140428001A7EC07FC07F217E287E2F7E367E3D7E447E517EB8
:14043C00587E5F7EC07FC07FC07FC07FC07FC07FC07FC07F01
:14045000C07FC07FC07FC07F6D7E7A7E877EC07FC07F947E24
:140464009F7EC07FC07FC07FA27EB17EBB7EC97ED77EE57E23
:14047800FD7E107F1A7F287F2E7F387F427F4C7F567F6D7F75
:14048C00857F9D7FC07FC07FC07FC07FC07FC07FC07FC07F44
:1404A000C07FC07FC07FC07FC07FC07FC07FC07FC07FC07FD2
:1404B400C07FC07FC07F667E6A935C92B3244C904D8F698E22
:1404C800308EC48DFF8C938CFF8B6B8BE38A1D8A6E89A888AC
:1404DC00C587F4866A865D913186B2852485DD8494844D8487
:1404F000F48D888DF5857485010204081020408000000100EF
:14050400020005000A00140032006400C800F401E803D007A9
:14051800030004002800323031373036323220627920766516
:14052C007273696F6E20312E302E302E37002A303130302013
:140540005241503031506F7765724F6E002A3031303120503D
:14055400415230315374617274002A3031303220536C6176EE
:14056800654F4B002A3031303320536C617665436F6E666988
:14057C00674F4B002A30313034205241503031537461727409
:140590004F4B002A30313035205265636F766572002A30314C
:1405A40030362053757370656E64002A3031313020437572A5
:1405B80072656E74576F726B002A303131312053746F7265B9
:1405CC0048756D6974757265002A30313132204361726453ED
:1405E000746F726542757379002A30313939205265537461AE
:1405F4007274002A30323030204475737462696E537461748C
:140608006500213039303120536C617665436F6E6E656374A9
:14061C004572726F7200213039303220536C617665436F6E99
:140630006669674572726F7200213039303320524150303125
:1406440053746172744661696C0021303931302053746F7265
:14065800654F70656E4572726F72002A31313031204D61636F
:14066C0068696E6552656164002131393031204D6F746F723D
:140680004572726F72002131393130205475726E706C6174F6
:14069400654D6F746F724C6F73650021313931312053616D1B
:1406A800706C696E675475726E4D6F746F724C6F73650021B6
:1406BC00313931322053616D706C696E674E6565646C654D68
:1406D0006F746F724C6F736500213139313320436172644CEA
:1406E4006F6164696E674D6F746F724C6F7365002131393130
:1406F800342043617264556E4C6F6164696E674D6F746F728E
:14070C004C6F736500213139313520436172644C69667465C7
:1407200072414D6F746F724C6F7365002131393136204361B8
:1407340072644C6966746572424D6F746F724C6F736500216E
:1407480031393137204361726453746F72654D6F76654D6FD1
:14075C00746F724C6F73650021313931382044696C75746526
:1407700050756D704D6F746F724C6F7365002131393139201A
:140784004C65616E657250756D704D6F746F724C6F736500C4
:140798002131393230204566666C75656E7450756D704D6FA9
:1407AC00746F724C6F73650021313932312053616D706C69DD
:1407C0006E67537972696E676D6F746F724C6F7365002131BE
:1407D400393330205475726E706C6174654D6F746F724572CE
:1407E800726F720021313933312053616D706C696E67547597
:1407FC00726E4D6F746F724572726F7200213139333220538B
:14081000616D706C696E674E6565646C654D6F746F724572D7
:14082400726F7200213139333320436172644C6F6164696E8B
:14083800674D6F746F724572726F7200213139333420436174
:14084C007264556E4C6F6164696E674D6F746F724572726F98
:140860007200213139333520436172644C6966746572414D91
:140874006F746F724572726F72002131393336204361726414
:140888004C6966746572424D6F746F724572726F7200213147
:14089C00393337204361726453746F72654D6F76654D6F7437
:1408B0006F724572726F720021313933382044696C757465CC
:1408C40050756D704D6F746F724572726F720021313933396C
:1408D800204C65616E657250756D704D6F746F724572726F4A
:1408EC0072002131393430204566666C75656E7450756D709C
:140900004D6F746F724572726F720021313934312053616D97
:14091400706C696E67537972696E676D6F746F724572726F70
:1409280072002A323130302053746172744C69717569644383
:14093C006865636B002A32313031205072696D696E674C6577
:14095000616E6572446F6E65002A32313032205072696D6957
:140964006E6744696C75656E74446F6E65002A32313033203F
:1409780043617264556E6C6F6164496E6974446F6E65002A4A
:14098C0032313034205475726E506C617465496E6974446F8A
:1409A0006E65002A32313035204C65616E6572537570706CF3
:1409B40079002A323130362044696C75656E74537570706CBA
:1409C80079002A32313037205475726E506C6174655A6572BE
:1409DC006F446F6E65002A32313038204361726453746F72DB
:1409F000654D6F7665496E6974446F6E65002A3231303920C7
:140A04004E6565646C655570446F776E496E6974446F6E651A
:140A1800002A323131302044696C75656E7450756D704361A1
:140A2C006C696256616C7565002A32313131204C65616E658E
:140A40007250756D7043616C696256616C7565002A323131F8
:140A540032204566666C75656E7450756D7043616C69625630
:140A6800616C7565002A32313133204E6565646C655475723A
:140A7C006E496E6974446F6E65002A3231313420506C61743B
:140A90006543617264556E6C6F6164446F6E65002A323131CC
:140AA4003520436172644D6F766548617343617264002A32E6
:140AB80031313620436172644D6F766543617264556E6C6F49
:140ACC006164446F6E65002A3231313720436172644D6F760A
:140AE00065416E64506C6174655265616479002A32313138A9
:140AF4002053616D7050756D70496E6974446F6E65002A3225
:140B0800313230204C6971756964436865636B446F6E65005A
:140B1C002A323135302043617044657465637465644368656D
:140B3000636B002132353035204C65616E65724C61636B0004
:140B440021323530362044696C75656E744C61636B002132EC
:140B5800393031205072696D696E674C65616E657245727279
:140B6C006F72002132393032205072696D696E6744696C7522
:140B8000656E744572726F7200213239303420576173684C21
:140B9400696E654572726F72002132393035204E6565646C0E
:140BA80065724C696E654572726F7200213239303620446911
:140BBC006C75656E744C696E654572726F7200213239303877
:140BD00020447261696E4C696E654572726F720021323931B4
:140BE40032204566666C75656E7450756D7043616C696245B0
:140BF80072726F72002132393230204C69717569644368659E
:140C0C00636B4572726F7200213239353020436170446574BA
:140C200065637465644572726F72002132393531204361708B
:140C34004465746563746564496E76616C6964002132393502
:140C4800322044696C75656E74537570706C79456D707479D5
:140C5C00002132393533204C65616E6572537570706C794547
:140C70006D7074790021323935342044696C75656E74416E0D
:140C8400644C65616E6572537570706C79456D7074790021E4
:140C9800323935352044696C75656E74537570706C7942753A
:140CAC0062626C65002132393536204C65616E6572537570F9
:140CC000706C79427562626C65002A333130302053746172D7
:140CD400747570002A3331303120506C6561736550726573B0
:140CE8007353746172744B6579002A333130322053616D70AD
:140CFC005265616479002A333130332053616D706C696E67A3
:140D10005374617274002A333130342053616D706C696E6774
:140D2400446F6E65002A333130352047657443617264446FD5
:140D38006E65002A3331303620436172645265616479002A27
:140D4C0033313037204D6978696E67315374617274002A33A0
:140D6000313038204D6978696E67325374617274002A33318C
:140D74003039204D69785265616479002A3331313020446507
:140D88007465726D696E616E645265616479002A33313131B0
:140D9C0020546573745374617274002A33313132205265614C
:140DB00064415374617274002A333131332052656164425359
:140DC40074617274002A33313134205265616441436C6F73FF
:140DD80065002A33313135205265616442436C6F7365002AB0
:140DEC00333131362043617264556E6C6F6164002A3331316C
:140E0000372043617264556E6C6F6164416761696E002A336D
:140E1400313138205761737465436172644E6F6E55736566D4
:140E2800756C002A3331313920576974686F757450756E6333
:140E3C00747572655374617465002A33313230205465737431
:140E50005374617465002A333132312043757272656E745346
:140E6400616D706C696E67566F6C756D65002A333132322008
:140E780043617264496E736572506C617465446F6E65002A45
:140E8C00333132332043757272656E745761697450686F7456
:140EA0006F466C6167002A333132342043757272656E74431B
:140EB4006172645363616E66506F73002A3331323520536509
:140EC800744765744361726454657374002A3331323620430F
:140EDC0061726453746F726547657443617264526573746125
:140EF0007274002A33313237204361726453746F72654765BE
:140F04007443617264446F6E65002A333132382043617264D3
:140F180053746F7265476574436172644E756D002A3331322E
:140F2C003920436C6F73654765744361726454657374002AFE
:140F400033313330204361726453746F72654F70656E002A73
:140F540033313331204361726453746F7265436C6F73650024
:140F68002A33313332204361726453746F726546756C6C0048
:140F7C002A33313333204361726453746F72654C6974746CBD
:140F900065002A33313334204361726453746F7265456D702A
:140FA4007479002A3331333520506C65617365436C6F7365E6
:140FB8004361726453746F7265002A333133362043757272EB
:140FCC00656E7444696C757465526174696F002A333133376C
:140FE0002043757272656E744361726453746F72654E756D43
:140FF400002A333133382043757272656E74526561645469B4
:141008006D6531002A333133392043757272656E74526561BC
:14101C006454696D6532002A333134302043757272656E74A6
:14103000526561644D6F64756C65002A33313431204375728D
:1410440072656E7444726F70566F6C756D65002A33313432DE
:141058002043757272656E7444726F704D6F6465002A3331D9
:14106C0034332043757272656E7452654D69784E756D002AC7
:14108000333134342052654D69784E756D4E6F7455736500FD
:141094002A333134352052654D69784D6F64655374617274B9
:1410A800002A33313436205465737442617463684368656327
:1410BC006B002A3331343720437572496E7365727452696ED4
:1410D000674E756D002A3331343820437572546573745269D6
:1410E4006E674E756D002A33313439204765744361726453EB
:1410F80074617465002A3331353020416C6C53746F726553AA
:14110C0074617465002A333135312053706353746F72655387
:1411200074617465002A333135322043757272656E74536C56
:1411340065657054696D65002A333135332053616D706C6962
:141148006E67436C6F7365002A333135342053616D706C694B
:14115C006E674F70656E002A33313535205365745265526566
:1411700061644F4B002A3331353620436C65616E4D6F64658B
:14118400002A33313537205374617274436C65616E696E670E
:14119800002A333135382053746172745375706572436C65F7
:1411AC00616E696E67002A333135392053657452656164431B
:1411C0006C6F73654F4B002A33313630204D616E75616C500C
:1411D40072696D6544696C75656E745374617274002A3331E9
:1411E8003631204D616E75616C5072696D65466C75696453CA
:1411FC00617274002A33313632204D616E75616C5072696D8C
:141210006544696C75656E74456E64002A33313633204D61B4
:141224006E75616C5072696D65466C756964456E64002A33A1
:1412380031363620576974686F75744D697874757265002AD9
:14124C003331363720436C65616E696E67446F6E65002A3399
:14126000313638205375706572436C65616E696E67446F6E6A
:1412740065002A3331363920436C65616E696E674661696C47
:141288006564002A33313730205375706572436C65616E6919
:14129C006E674661696C6564002A33313731204D616E75611C
:1412B0006C5072696D6544696C75656E7442757379002A33EC
:1412C400313732204D616E75616C5072696D65466C7569640D
:1412D80042757379002A33313733204D616E75616C466C75C2
:1412EC006964436865636B42757379002A33313734204375CF
:141300007272656E74476574566F6C756D65466F7244726FCA
:1413140070002A333137352043757272656E744D6F6E697451
:141328006F725374617465002A333138382043757272656E42
:14133C00744E6565646C65414443002A3331393020537461D5
:141350006E646279002A333139312053616D70696E67536C36
:14136400656570002A333139342043617264556E6C6F616443
:14137800436F756E74446F6E65002A3331393520436172643C
:14138C004C6F6164436F756E74446F6E65002A33313939201E
:1413A00052654D6978547572654F4B002A3332303020507249
:1413B40065737353746172744B6579446F6E65002A3332305E
:1413C800312044696C757465537465705374617465002A335F
:1413DC003231372053616D706C65436865636B002A33323143
:1413F000382044726F70566F6C756D65466163746F72002AFB
:141404003332323520426C6F6F64436F6C6C656374696F6EEC
:14141800547562654F6E002A333232362050756E637475726B
:14142C006544697374616E6365446F6E65002A33323237207E
:141440004C69717569644C6576656C56616C7565002A3333AB
:14145400333320436172644E6F6E6555736566756C0021332C
:14146800393032204175746F4C65616E657250756D7043617F
:14147C006C69624572726F72002133393034204175746F442D
:14149000696C75656E7450756D7043616C69624572726F7230
:1414A40000213339303520436C65616E4D6F64654C65616E3A
:1414B8006572456D70747900213339303620576173746543E0
:1414CC0061726453746F726549734F70656E0021333931318B
:1414E000204D616E75616C4C65616E657250756D7043616C71
:1414F40069624572726F72002133393132204D616E75616CA1
:1415080044696C75656E7450756D7043616C69624572726FE5
:14151C007200213339323520426C6F6F64436F6C6C6563747F
:14153000696F6E547562654F66660021333932362050756E6E
:14154400637475726544697374616E6365556E646F0021335B
:14155800393237204E6F4C69717569644C6576656C44657483
:14156C00656374656400213339323820436C65616E696E672E
:1415800068656164706F6C6C7574696F6E00213339333320CC
:1415940043617264556E6C6F6164436F756E744572726F7253
:1415A80000213339333420436172644C6F6164436F756E7418
:1415BC004572726F720021333933352046696E6452696E67EB
:1415D0004E756D4572726F720021333933362044726F7048DA
:1415E4006569676874466163746F7249735472756E5A6572ED
:1415F8006F002A34313031205475726E506C61746541646AB2
:14160C007573745265616479002A34313032204E6565646C80
:14162000654F6E4D6978536574446F6E65002A3431303420A1
:1416340044726F70486569676874536574446F6E65002A34A4
:1416480031303520436172644C6F6164537461727441646AC1
:14165C007573745265616479002A3431303620436172644C4E
:141670006F6164456E6441646A757374446F6E65002A34319B
:1416840030372043617264556E6C6F6164537461727441643B
:141698006A7573745265616479002A343130382043617264F2
:1416AC00556E6C6F6164456E6441646A757374446F6E6500BF
:1416C0002A34313039204C697175696450686F746F41646A7D
:1416D400757374526573756C74002A34313130204C6971757C
:1416E800696450686F746F41646A757374446F6E65002A34C8
:1416FC00313131204361726453746F726550686F746F4164F1
:141710006A757374526573756C74002A343131322043617258
:141724006453746F726550686F746F41646A757374446F6EAA
:1417380065002A34313133204C616D7041646A757374446F7D
:14174C006E65002A34313134204C616D704C756D56616C7552
:1417600065002A34313135204C616D705475726E4F6E002AE1
:1417740034313136204C616D705475726E4F6666002A343198
:1417880031372043616C6962526573756C74002A3431313873
:14179C00204D6978486569676874536574446F6E65002A3482
:1417B000313139204D6978486569676874436865636B446F52
:1417C4006E65002A34313230205475726E506C6174654368E3
:1417D80065636B446F6E65002A34313231204E6565646C65E5
:1417EC005475726E436865636B446F6E65002A3431323220C9
:141800004E6565646C655570646F776E436865636B446F6E0B
:1418140065002A34313233204361726453746F72654D6F768E
:1418280065436865636B446F6E65002A3431323420436172B8
:14183C006454616B65486F6F6B436865636B446F6E65002A90
:141850003431323520436172644C6F6164436865636B446F0D
:141864006E65002A343132362043617264556E6C6F61644366
:141878006865636B446F6E65002A3431323720546573744142
:14188C004C6966746572436865636B446F6E65002A343132BD
:1418A000382054657374424C6966746572436865636B446F03
:1418B4006E65002A343132392044696C75656E7450756D70BC
:1418C800436865636B446F6E65002A34313330204C65616E16
:1418DC00657250756D70436865636B446F6E65002A34313359
:1418F00031204566666C75656E7450756D70436865636B4496
:141904006F6E65002A343133322053616D706C696E67537279
:1419180079696E67436865636B446F6E65002A34313333208B
:14192C004C697175696450686F746F5369676E616C002A3479
:14194000313334204C697175696450686F746F436865636B8B
:14195400446F6E65002A34313335204361726453746F72655B
:1419680050686F746F5369676E616C002A3431333620436147
:14197C00726453746F726550686F746F436865636B446F6E6B
:1419900065002A34313337204E65656C654F6E4D6978536935
:1419A4006465436865636B446F6E65002A3431333820447232
:1419B8006F70486569676874436865636B446F6E65002A3421
:1419CC003135302044696C75656E745175616E7469667954D7
:1419E0006573745265616479002A343135312044696C7565AA
:1419F4006E745175616E746966795465737451756974002A3F
:141A080034313532204C65616E65725175616E7469667954E2
:141A1C006573745265616479002A34313533204C65616E6579
:141A3000725175616E746966795465737451756974002A343E
:141A4400313534205175616E7469667953756374696F6E4658
:141A5800696E697368002A34313734204C6971756964446534
:141A6C00745369676E616C002A3431373520436172644C6F44
:141A800061644465745369676E616C002A3431373620436152
:141A94007264556E6C6F61644465745369676E616C002A342C
:141AA8003139392043617264476574436865636B446F6E6569
:141ABC00002A343230312053656E736F725374617465002A60
:141AD0003432303220416C6C53656E736F7253746174650086
:141AE4002134393031205475726E506C61746541646A757349
:141AF800744572726F72002134393032204E6565646C654FB0
:141B0C006E4D69785369646541646A7573744572726F72002F
:141B20002134393033204E6565646C654F6E4D697843656E52
:141B340074726541646A7573744572726F72002134393034EB
:141B4800204E6565646C6548656967687441646A7573744513
:141B5C0072726F7200213439303520436172644C6F61645350
:141B70007461727441646A7573744572726F72002134393073
:141B84003620436172644C6F6164456E6441646A7573744536
:141B980072726F720021343930372043617264556E6C6F61E6
:141BAC0064537461727441646A7573744572726F72002134E9
:141BC0003930382043617264556E6C6F6164456E6441646A4D
:141BD4007573744572726F72002134393039204361726455B1
:141BE8006E6C6F616453656E736F724572726F7200213439C9
:141BFC00313020436172646C6F616453656E736F7245727297
:141C10006F72002134393230205475726E506C617465436885
:141C240065636B4572726F72002134393231204E6565646C76
:141C3800655475726E436865636B4572726F720021343932E2
:141C4C0032204E6565646C655570646F776E436865636B4545
:141C600072726F72002134393233204361726453746F726511
:141C74004D6F7665436865636B4572726F72002134393234E9
:141C8800204361726454616B65436865636B4572726F720041
:141C9C00213439323520436172644C6F6164436865636B4502
:141CB00072726F720021343932362043617264556E6C6F61CC
:141CC40064436865636B4572726F72002134393237205465F0
:141CD8007374414C6966746572436865636B4572726F720082
:141CEC0021343932382054657374424C696674657243686574
:141D0000636B4572726F720021343932392044696C75656E7D
:141D14007450756D70436865636B4572726F720021343933FC
:141D280030204C65616E657250756D70436865636B45727257
:141D3C006F72002134393331204566666C75656E7450756D35
:141D500070436865636B4572726F7200213439333220536160
:141D64006D706C696E67537279696E67436865636B45727261
:141D78006F720000002F2F20557267656E74436F6D6D616E28
:141D8C006420696E73657274206661696C205B25645D0D0AF6
:141DA000002F2F20436F6D6D616E6420696E736572742066B7
:141DB40061696C205B25645D0D0A002F2F436D644261636B8A
:141DC8004572722C4E6F3A25640D0A002F2F20496E666F20F1
:141DDC006572722C4E756D3A25642C53756D3A25642C2564B2
:141DF0002825642C2564290D0A002F2F4461746153656E64D7
:141E0400457272322C4E6F3A25640D0A002F2F446174615381
:141E1800656E64457272312C4E6F3A25640D0A002F2F205391
:141E2C006C6176654E756D206572726F7221200D0A002F2FCA
:141E4000204576656E2073617665206661696C205B25645DF4
:141E54000D0A0000000000000100FF002573202420002A330A
:141E680039323020436172644C6F61644261636B446F6E65BA
:141E7C000D0A002A3339313920436172644C6F61644261631B
:141E90006B0D0A002A3339313820436172644C6F61644265FC
:141EA4006761696E0D0A00257320242025640D0A0025732020
:141EB8002425346420242534640D0A002024253464202425B3
:141ECC0034640D0A0021333534302024200021333532370D03
:141EE0000A0021333532360D0A0021333532350D0A00213381
:141EF40035323220242534640D0A00213335323020242534A1
:141F0800640D0A002133353239202420000D0A002133353220
:141F1C0038202420002A33323033204361726453746F72657C
:141F3000537465705374617465202425326420242532640DF5
:141F44000A0025730D0A00257320242534640D0A0025732068
:141F58002420300D0A002573202420310D0A00000000300076
:141F6C00310030003100000025732024202020310D0A002526
:141F8000730D0A00257320242534640D0A00257320242534DE
:141F94006420242534640D0A000D0A00202425346400202461
:141FA8002532640020242563002425326420242532640D0AA9
:141FBC00003A53544F52455F4D4F4E49544F52003A4C4951A3
:141FD0005549445F434F4E54524F4C003A4D4F545F53414D31
:141FE400505F50554D50003A4D4F545F4546464C55454E5416
:141FF800003A4D4F545F464C554944003A4D4F545F44494C76
:14200C0055454E54003A4D4F545F53544F52455F43415244F5
:142020005F4D4F5645003A4D4F545F434152445F554E4C4FD6
:142034004144003A4D4F545F434152445F4C4F4144003A4D6A
:142048004F545F53414D505F4E4545444C45003A4D4F545FBC
:14205C0053414D505F5452554E003A4D4F545F5455524E5F66
:14207000504C4154450025730025732024253264202425321C
:142084006420242534640D0A0025732024253264202425329A
:1420980064202425630D0A00000000000000000500000000E8
:1420AC00000100000000000000000000002573202534640D9D
:1420C0000A0021323930370D0A0021323930360D0A0021329C
:1420D4003931320D0A0021323931310D0A0021323930312033
:1420E8002425640D0A0021323535300D0A002F2F2043616C8E
:1420FC00696252657472793A0D0A002F2F20466C6F774A75C9
:142110006467653A25640D0A002F2F2044696C757465466C1A
:142124006F773A25640D0A0021323533350D0A002132353325
:14213800330D0A0021323533320D0A0021323533310D0A0042
:14214C002573202425640D0A002132353134202425346420F5
:14216000242534640D0A0021323531320D0A00213235313187
:142174000D0A0021323530320D0A002425346420242534645D
:142188002024253464202425346420242534640D0A002133D5
:14219C00393033202420002573200D0A00213339303120242E
:1421B0002000202420000D0A00257320242000257320242583
:1421C400346420242534640D0A002133353232202425346469
:1421D8000D0A00213335323020242534640D0A00213335321E
:1421EC003120242534640D0A002F2F204175746F54657374DF
:142200004379633A2025640D0A0025730D0A00257320242501
:1422140034640D0A002573202425326420242532640D0A005A
:14222800AAA5555A010203042F2F5B25645D202420253464DA
:14223C000D0A002F2F44696C75656E74436F6666202420253D
:1422500034640D0A002F2F2043757243616C69623A5B6361EF
:142264006C5D2564205B6E5D25640D0A000001012333303076
:142278003224332047422573202420202034205B4D61696EB0
:14228C007461696E5D0D0A00257320242573205B4D61696EAA
:1422A0007461696E5D0D0A002573446F6E650D0A002573201D
:1422B4005B546573745D202420333332320D0A00257320249D
:1422C8002033205B4C6971756964436865636B5D20242033FA
:1422DC003332320D0A0025732024310D0A00257320242534E7
:1422F00064202425346420242534640D0A0025732024253428
:14230400640D0A002573202420202031205B427573795D0D55
:142318000A002573202420202033205B546573745D0D0A00A9
:14232C002573202420202035205B536C6565705D0D0A00251F
:142340007320242573205B546573742F536C6565705D0D0A83
:14235400002573202420202032205B4C697175696443686514
:14236800636B5D0D0A00257320242573205B4C6971756964C8
:14237C00436865636B5D0D0A002573202420202031205B4DC6
:14239000656368696E65436865636B5D0D0A0025732024257A
:1423A40073205B4D656368696E65436865636B5D0D0A002507
:1423B80073202425346420242534640D0A0025732024202069
:1423CC002030205B467265655D0D0A002325346420436F6D1D
:1423E0006D616E64446F6E652024202020330D0A0023253459
:1423F4006420436F6D6D616E644572726F72202420202031B3
:142408000D0A0023256420436F6D6D616E64556E6B6E6F779C
:14241C006E2024202020320D0A002573202420323535205B3E
:14243000496E76616C69645D0D0A002325346420436F6D6DD1
:14244400616E64526563656976652024202020300D0A00257E
:1424580073202425730D0A0025730D0A00000000000000005B
:14246C000000E8030000E80328002573202425640D0A0025BD
:142480007320242534642024253464204C20242534642048FE
:1424940020242534640D0A0025732024253464202425346482
:1424A800202425346420242534640D0A00257320242534646E
:1424BC00204E756D20242534642050574D2024253464205630
:1424D0006F6C0D0A0025730D0A00257320242534640D0A00A7
:1424E400000000000000000000002A33333434205761697437
:1424F80041636B4F75744F6654696D650D0A002F2F204C69FB
:14250C0071756964206465746563743A2025640D0A00213222
:14252000393032202425640D0A002132393031202425640D61
:142534000A002573202425640D0A00202420000D0A0020244E
:1425480025346420242534642024200020242534640D0A0045
:14255C002573202420002573202425346420242534640D0ABE
:14257000002A33323035205465737442537465705374617429
:1425840065202425326420242532640D0A002A3332303420B6
:14259800546573744153746570537461746520242532642092
:1425AC00242532640D0A0025730D0A002500000D0A002024F6
:1425C000253464202420002573202420002573202425346451
:1425D40020242534640D0A00257320242025640D0A002A33E2
:1425E80032303220556E6C6F6164537465705374617465200B
:1425FC002425326420242532640D0A00257320242534640D30
:142610000A00CFEFD1E2CDBFDEBFCE51D0400AEA0883002440
:14262400E7E9FAE01EE1ED38F10711F00192FBCF0083EBE729
:14263800FDE1A0E0B2E016E200E00BBFE231F10721F0C89583
:14264C0031960D92F9CF0E94E171FFCF22242092390B28E93D
:1426600032E10027112706C02224F90121929F010F5F1F4FBF
:142674000C38E2E01E07B0F323E43BE00027112706C02224F7
:14268800F90121929F010F5F1F4F0535E7E01E07B0F32AE33F
:14269C003BE00027112706C02224F90121929F010F5F1F4F7B
:1426B0000930E0E01E07B0F32BE93AE00027112706C02224BC
:1426C400F90121929F010F5F1F4F0738E0E01E07B0F3089575
:1426D8000E945FAD0E9478AE6901EE84A09099124A2D439572
:1426EC00423309F4442720909812421509F430C00DE01A2D2B
:1427000001038AE992E1F001E80FF91F0A84008201038BE953
:1427140092E1F001E80FF91FD6012D906D012082EA94010318
:1427280086EA92E1F001E80FF91FE0820103B0018CE992E1BB
:14273C00680F791FAA2407C0F601DB0101906F010D92BD01B4
:14275000A394AE14B8F34093991210C08091C1008F7E809391
:14276400C1002A85332703EC12E00E940DA98091C1008061AB
:142778008093C1000E946DAE249608954A93402F21974F30E2
:14278C0070F08091C1008F7E8093C1000DEA12E00E940DA9E5
:1427A0008091C10080618093C10083E19BE0E42FFF27E80F8F
:1427B400F91F20802220D9F088E088832AE33BE08BE99AE0C5
:1427C800042F1127000F111F000F111F000F111F080F191F86
:1427DC000E94187183E19BE0E42FFF27E80FF91F22242082AF
:1427F0000AC0842F880F880F880F887F80933A0B81E08093C0
:14280400410B2196499108950E94B3AE402F21974F3070F03D
:142818008091C1008F7E8093C1000DEA12E00E940DA98091A7
:14282C00C10080618093C10083E19BE0E42FFF27E80FF91FFB
:1428400020802220D9F088E088832AE33BE08BE99AE0042F1D
:142854001127000F111F000F111F000F111F080F191F0E948A
:14286800187183E19BE0E42FFF27E80FF91F2224208230C0D4
:14287C000BE7142F0103B00184E59BE0680F791FFB01E8582F
:14289000FF4FA080E857F040E758FF4FC080E957F040AC145A
:1428A40089F088E088832AE33BE00A2D1127000F111F000F4F
:1428B800111F000F111F0E0F1F1F0E9418710AC0842F880F03
:1428CC00880F880F887F80933A0B81E08093410B21960C9454
:1428E000BCAE0E9478AE2090390B222009F4ABC04091520BE6
:1428F400C090420BA090410BCA1408F041C0CC20A9F42090A7
:142908000002222039F400270E94A49981E08093000295C079
:14291C0000913A0B0E94A4992224209200022092970A24C0C1
:142930000E944C99002389F0CC248091C1008F7E8093C100CD
:14294400242F332706E912E00E940DA98091C10080618093D3
:14295800C1008AE39BE0EC2DFF27E80FF91FE0800E2D0E9437
:14296C00B8992090970A2E0C2092970A8091420B8F5F8093C9
:14298000420B61C0CA1429F50E944C99002389F0CC248091B5
:14299400C1008F7E8093C100242F33270FE712E00E940DA9A0
:1429A8008091C10080618093C10081E08A1520F40091970A4E
:1429BC000E94B8998091420B8F5F8093420B8FE08093530B88
:1429D0003AC02090530B222029F0822D81508093530B31C0AE
:1429E400222420929A0A43954F3009F4442783E49BE0E42F8F
:1429F800FF27E80FF91F2080222099F34093520B0BE7142FC3
:142A0C000103B00184E59BE0680F791FFB01E658FF4F6081A5
:142A200077276030670729F06230E0E07E0721F005C0042F0D
:142A3400EBDE02C0042FA4DE22242092420B2092360B0C9476
:142A48006DAE0E94A5AE402F2897A090520B8FE08093530BCF
:142A5C002090360B222019F540939A0A242E2694269426942E
:142A70002092980A842F87708093370B882321F481E08093CB
:142A8400380B6AC082E29BE0E091360BFF27E80FF91F408348
:142A98008091360B8F5F8093360B22242092990A59C08091D1
:142AAC00370B8F5F2090360B281690F482E29BE0E22DFF271F
:142AC000E80FF91F40838091360B8F5F8093360B2090990A49
:142AD400240E2092990A40C02090990A241639F481E0809339
:142AE800380B06E00E94B89935C08EEF80939A0A07E00E940C
:142AFC00B8992090D817222019F18091C1008F7E8093C100D7
:142B10002090240B33243F822E822090230B33243D822C8268
:142B2400242E33243B822A822090990A3324398228822A2D25
:142B3800332709E512E00E940DA98091C10080618093C10070
:142B4C0022242092370B2092360B82E08093530B2090380B82
:142B6000222009F4E3C08FEF80939A0A4091980A55274030EB
:142B7400450719F14130E0E05E0749F14230E0E05E0709F493
:142B880071C04330E0E05E0709F476C04430E0E05E0709F4A7
:142B9C0071C04530E0E05E0709F495C04630E0E05E0709F470
:142BB0009EC04730E0E05E0709F4A4C0ADC089E892E1EA2D4E
:142BC400FF27E80FF91F2090980A2082A3C089E892E1EA2D76
:142BD800FF27E80FF91F2090980A20820BE71A2D01038EEC09
:142BEC009BE0F001E80FF91F8081823009F08EC001038CECE4
:142C00009BE0F001E80FF91F408101038DEC9BE0F001E80FA4
:142C1400F91FC0804C1569F043954F3009F444270BE71A2DA2
:142C280001038CEC9BE0F001E80FF91F40830BE71A2D0103A1
:142C3C008EEC9BE0F001E80FF91F222420828091C1008F7EC8
:142C50008093C1002A2D332704E412E00E940DA98091C100E7
:142C640080618093C10056C089E892E1EA2DFF27E80FF91F61
:142C78002090980A20824CC00BE71A2D01038CEC9BE0F00127
:142C8C00E80FF91F408101038DEC9BE0F001E80FF91FC0802C
:142CA0004C1569F043954F3009F444270BE71A2D01038CECF2
:142CB4009BE0F001E80FF91F40830BE71A2D01038EEC9BE09C
:142CC800F001E80FF91F222420828091980A8430F9F0209010
:142CDC00370B2220D9F0288223E23BE00A2DF6DC15C00BE7FD
:142CF0001A2D01038EEC9BE0F001E80FF91F82E080830AC061
:142D04000BE71A2D01038EEC9BE0F001E80FF91F22242082A1
:142D180082E08093530B22242092380B2092370B2092360BB2
:142D2C0028960C94ACAE83E49BE0E02FFF27E80FF91F81E054
:142D4000808308954A93442711C083E49BE0E42FFF27E80FB4
:142D5400F91F2080222039F0042F12DD4093520B81E0809382
:142D6800390B43954F3068F3499108950E9478AE6901A02EEA
:142D7C002197F8940BE71A2D01038CEC9BE0F001E80FF91FCF
:142D9000E08001038DEC9BE0F001E80FF91F6081462F639589
:142DA4006F3008F066276E1529F188E088830BE71A2D0103AA
:142DB800100184E59BE0280E391E242F3327220F331F220F24
:142DCC00331F220F331F220D331D86010E94187143954F3096
:142DE00009F444270BE71A2D01038DEC9BE0F001E80FF91F46
:142DF400408313C08091C1008F7E8093C1002A2D332706E2E9
:142E080012E00E940DA98091C10080618093C100789401E0F8
:142E1C0002C07894002721960C946DAE0E947EAE6901A02E35
:142E30002197F89483E19BE0EA2DFF27E80FF91F208022203D
:142E4400D1F488E088838BE99AE02A2D3327220F331F220FEF
:142E5800331F220F331F280F391F86010E94187183E19BE071
:142E6C00EA2DFF27E80FF91F81E0808313C08091C1008F7EF0
:142E80008093C1002A2D332702E012E00E940DA98091C100BB
:142E940080618093C100789401E002C07894002721960C943C
:142EA80058AE0E947CAEA02E0BE71A2D01038CEC9BE0F00155
:142EBC00E80FF91FC08001038DEC9BE0F001E80FF91FE0805B
:142ED000CE1441F489E892E1EA2DFF27E80FF91F008101C065
:142EE40002E00C945DAE4A9320900102222009F01CC081E045
:142EF800809301024091981220909912421581F00DE0142FE2
:142F0C00010380018AE992E1080F191F0E94223243954233B4
:142F200009F4442740939812222420920102499108954A9369
:142F3400402F81E0841708F441E040935915413011F5222403
:142F48002092F6068CE790E090932F0580932E0581E08093D3
:142F5C0053158093E10201E00E9483528091C1008F7E8093B9
:142F7000C10020EC3EE003EE13E00E940DA98091C100806173
:142F84008093C10016C02224332430922F0520922E05809106
:142F9800C1008F7E8093C10028E23FE00AED13E00E940DA918
:142FAC008091C10080618093C10049910895002709C084E5BA
:142FC00095E1E02FFF27E80FF91F2224208203950530A8F3F3
:142FD40081E08093E102809353158CE790E090932F058093CA
:142FE8002E0508958091E202813019F422242092E2020895D9
:142FFC0022978091E202813009F46CC022242092E20281E0FC
:14301000809353158091E102813008F183E595E12090E10222
:143024003324280E391EF10180818F5F808383E595E1E09181
:14303800E102FF27E80FF91F8081893160F08091E1028F5F7F
:14304C008093E10285E02090E102821510F48093E102209041
:14306000551530905415320C20905615320C20905715320CD8
:1430740020905815320C309224158091C1008F7E8093C1003F
:14308800232C3324398228822EE03FE000ED13E00E940DA9C4
:14309C008091C10080618093C100809124158D37C8F085DF6F
:1430B0002224209259152092531509E00E9483528091C1005A
:1430C4008F7E8093C10023EF3EE00BEC13E00E940DA9809194
:1430D800C10080618093C100229608954A935A93402F552764
:1430EC004130E0E05E0789F04230E0E05E0781F04330E0E086
:143100005E0779F04430E0E05E0771F04530E0E05E0769F000
:143114000FC046EB53E00EC04EE455E00BC045EE56E008C043
:143128004DE758E005C040E05AE002C046EB53E08A0159916D
:14313C00499108954A935A930093E402402F5527403045071E
:1431500049F04130E0E05E0749F04230E0E05E0751F00DC0BE
:1431640081B38C7F81BB09C081B38C7F81BB889A04C081B37E
:143178008C7F81BB899A2090E402222021F481B38C7F81BB71
:14318C0001C0889A5991499108950091E3020895209009011E
:1431A00022FE04C081E08093E30203C022242092E3020895A1
:1431B4000E9483AEA02E22978CE495E1EA2DFF27E80FF91F7B
:1431C800408155274631E0E05E0771F04731E0E05E0701F12A
:1431DC004831E0E05E0791F14931E0E05E0709F442C041C020
:1431F0008091C1008F7E8093C1008A2D9927019699838883E3
:1432040028E63FE000ED13E00E940DA98091C100806180938B
:14321800C1002BC08091C1008F7E8093C1008A2D9927019635
:14322C00998388832CE73FE000ED13E00E940DA98091C1002B
:1432400080618093C10015C08091C1008F7E8093C1008A2D86
:14325400992701969983888322E93FE000ED13E00E940DA986
:143268008091C10080618093C10022960C9488AEAA924A9324
:14327C00A02EAA2041F4442703C0042F95DF43954530D8F384
:1432900003C0AA940A2D8EDF4991A99008950E9497AE580195
:1432A4002297F50181818D3131F0628185E0861710F4002776
:1432B80007C1F501418155274431E0E05E0721F14531E0E024
:1432CC005E0709F449C04631E0E05E0709F477C04731E0E07B
:1432E0005E0709F485C04831E0E05E0709F493C04931E0E00B
:1432F4005E0709F4A1C04D31E0E05E0709F4AFC04E31E0E0B5
:143308005E0709F4C7C0DBC088EF94E0E62FFF27E80FF91FF8
:14331C0026903090521532283092521586E495E1E62FFF2722
:14333000E80FF91F84E180838091C1008F7E8093C100862FAA
:1433440099270196998388832FE33FE000ED13E00E940DA98E
:143358008091C10080618093C100B1C088EF94E0E62FFF2743
:14336C00E80FF91F269033248FEF90E08219930920905215F5
:143380003324282239222092521586E495E1E62FFF27E80F12
:14339400F91F85E180838091C1008F7E8093C100862F99277C
:1433A80001969983888323E53FE000ED13E00E940DA98091E3
:1433BC00C10080618093C100062FF6DE7EC08CE495E1E62F45
:1433D000FF27E80FF91FD50111962C90208286E495E1E62FE4
:1433E400FF27E80FF91F86E180836BC08CE495E1E62FFF27EA
:1433F800E80FF91FD50111962C90208286E495E1E62FFF27BC
:14340C00E80FF91F87E1808358C08CE495E1E62FFF27E80F02
:14342000F91FD50111962C90208286E495E1E62FFF27E80F93
:14343400F91F88E1808345C08CE495E1E62FFF27E80FF91FCB
:14344800D50111962C90208286E495E1E62FFF27E80FF91F6B
:14345C0089E1808332C0A5014E5F5F4F662715C0FA012080FF
:143470003324822D863160F089E1821548F08CE495E1E62F07
:14348400FF27E80FF91FDA012C9020824F5F5F4F63956630DC
:1434980048F315C0A5014D5F5F4FFA0120803324822D8631B8
:1434AC0060F089E1821548F08CE495E1E62FFF27E80FF91F53
:1434C000DA012C902082002722960C949EAE22972090451531
:1434D40033243982288220914415332706EA13E00E940DA989
:1434E800229608951A930A930E9497AE2497209025152092F3
:1434FC004415209026152092451520902915222009F4DCC0A3
:1435100020902C15222009F468C008E00E94C697002399F0BC
:1435240008E00E940C6A013019F000270C94AE2422242092C8
:14353800291520922C152227332708E00E94B79750C008E0DB
:14354C000E94136A0E942D378091C1008F7E8093C1000DE99D
:1435600013E00E940DA92091641630916516009162161091FB
:1435740063160E9440A90AE913E00E940DA98091C10080614E
:143588008093C10022242092291520922C152092F706809172
:14359C00C1008F7E8093C10021EA35E00BEC13E00E940DA917
:1435B0008091C10080618093C100209059152220A1F0FBDCB8
:1435C40081E08093E2028091C1008F7E8093C10025ED3EE0B8
:1435D8000BEC13E00E940DA98091C10080618093C100209066
:1435EC002D15222009F46AC004E00E94C697A02E0023A1F0BB
:1436000004E00E940C6A402F013019F000270C94AE24222432
:143614002092291520922D152227332704E00E94B79750C037
:1436280004E00E94136A0E942D378091C1008F7E8093C100D2
:14363C0001E913E00E940DA9209164163091651600916216D5
:14365000109163160E9440A90AE913E00E940DA98091C100B1
:1436640080618093C10022242092291520922D152092F706C4
:143678008091C1008F7E8093C10021EA35E00BEC13E00E94DF
:14368C000DA98091C10080618093C100209059152220A1F0FC
:1436A0008CDC81E08093E2028091C1008F7E8093C10025ED91
:1436B4003EE00BEC13E00E940DA98091C10080618093C1001B
:1436C8002090F706222019F400270C94AE2408E00E94C69772
:1436DC00A02E002319F000270C94AE2404E00E94C697A02E96
:1436F000002319F000270C94AE2405E00E94C697A02E00232C
:1437040019F000270C94AE2420902C15222061F008E00E9401
:143718000C6A402F013019F000270C94AE24222420922C15AC
:14372C0020902D15222061F004E00E940C6A402F013019F05F
:1437400000270C94AE24222420922D1520902E15222061F01C
:1437540005E00E940C6A402F013019F000270C94AE242224DC
:1437680020922E1520902F15222061F001E00E940C6A402F69
:14377C00013019F000270C94AE24222420922F15409125151F
:1437900055274030450709F434C04130E0E05E0709F4BCC0ED
:1437A4004230E0E05E0709F450C14330E0E05E0709F4FFC117
:1437B8004530E0E05E0709F4BDC24630E0E05E0709F4B0C5DA
:1437CC004730E0E05E0709F4CAC54830E0E05E0709F4D6C58C
:1437E0004030E0E05E0714F40C94AD244436E0E05E07B1F186
:1437F4004536E0E05E0709F47CC00C94AD2440915F164423CA
:1438080041F1463030F584E680932515222420922615242EA3
:14381C002092321508E00E94FA6A00278BDC2AE030E008E021
:143830000E94B79781E080932C1522242092331520923415A4
:1438440020905915222011F40C94AD242224209253150C949A
:14385800AD2401E00C94AE248BE495E1E0915F16FF27E80F50
:14386C00F91F40812090F6062220B1F54831B9F40E942D37AF
:143880008091C1008F7E8093C10020915F16332704E813E022
:143894000E940DA98091C10080618093C10085E68093251589
:1438A80022C04931A9F48091C1008F7E8093C10020915F163A
:1438BC00332707E713E00E940DA98091C10080618093C100DE
:1438D00085E6809325150BC081E0809325158093E00205C0F9
:1438E40081E0809325158093E002409330150C94AD248BE435
:1438F80095E1E0915F16FF27E80FF91F40812090301542151E
:14390C0011F40C94AD2484E6809325150C94AD2460912615DD
:1439200077276030670789F06130E0E07E0709F43BC062301E
:14393400E0E07E0709F45AC06330E0E07E0709F478C00C9476
:14394800AD248EEE91E090932815809327158AE08A8384E122
:14395C00888328EC08E00E949F6A809152158F7391F0809199
:14397000C1008F7E8093C1000FE613E00E940DA98091C1008F
:1439840080618093C10082E080932615E4C720912715309171
:14399800281508E00E945B6A81E080932615D9C780915215C8
:1439AC008F73A9F008E00E94136A8091C1008F7E8093C100B2
:1439C0000FE613E00E940DA98091C10080618093C10082E0CA
:1439D40080932615C0C708E00E940C6A602F013009F0B9C7D1
:1439E80083E080932615B5C7809152158F7309F0B0C708E0CC
:1439FC000E94AD2DB8016B5F7F4F209027153090281562158A
:143A100073056CF4910108E00E945B6A21E030E008E00E944E
:143A2400B79781E08093261596C783E08093261592C72AE020
:143A380030E008E00E94B79722242092261582E080932515B0
:143A4C0086C7A0902615BB24AA2011F4BB20B1F0C50181300D
:143A6000E0E09E0709F441C08230E0E09E0709F460C0833008
:143A7400E0E09E0709F47FC08430E0E09E0709F489C069C70E
:143A8800809152158F7391F08091C1008F7E8093C10007E68F
:143A9C0013E00E940DA98091C10080618093C10082E08093CF
:143AB000261553C700915F1615DB5801B0922815A092271571
:143AC4008AE08A8384E1888328EC08E00E949F6A2091271573
:143AD8003091281508E00E945B6A81E08093261538C78091CE
:143AEC0052158F73A9F008E00E94136A8091C1008F7E8093CB
:143B0000C10007E613E00E940DA98091C10080618093C10031
:143B140082E0809326151FC708E00E940C6AA02E013009F00F
:143B280018C783E08093261514C7809152158F7309F00FC7D5
:143B3C0008E00E94AD2D5801B5016B5F7F4F209027153090BE
:143B50002815621573056CF4910108E00E945B6A21E030E0E3
:143B640008E00E94B79781E080932615F4C683E0809326155B
:143B7800F0C604E00E94FA6A81E080932D1525E030E008E0E6
:143B8C000E94B79784E080932615E1C627EE3FEF04E00E9413
:143BA0005B6A81E080932D1522242092261583E080932515B3
:143BB400D2C6A0902615BB24AA2019F4BB2009F433C0C501B3
:143BC8008130E0E09E0709F44EC08230E0E09E0709F451C0A3
:143BDC008330E0E09E0709F45FC08430E0E09E0709F466C065
:143BF0008530E0E09E0709F46DC08630E0E09E0709F474C031
:143C04008730E0E09E0709F47BC08830E0E09E0709F47FC0FF
:143C18008930E0E09E0709F486C08A30E0E09E0759F097C672
:143C2C0001E088DA22E030E008E00E94B7978AE0809326159F
:143C40008AE08A83888320E108E00E949F6A2EE93FEF08E02D
:143C54000E942C6A22E030E008E00E94B79781E080932C1585
:143C68008093261576C6002767DA0E94393782E08093261594
:143C7C006EC68AE08A83888324E608E00E949F6A2FEC3EEF99
:143C900008E00E942C6A81E080932C1587E0809326155BC675
:143CA40026E530E008E00E942C6A81E080932C1584E08093A5
:143CB80026154FC62AEA3FEF08E00E942C6A81E080932C1591
:143CCC0085E08093261543C623E630E008E00E942C6A81E08E
:143CE00080932C1586E08093261537C62AE63FEF08E00E9403
:143CF4002C6A81E080932C1587E0809326152BC62AE030E0B1
:143D080008E00E94B79788E08093261522C620E431E008E034
:143D1C000E942C6A81E080932C1589E08093261516C62224CD
:143D30002092261585E0809325150FC6A0902615BB24C501FB
:143D44008030E0E09E070CF406C68DE18A159B050CF401C616
:143D580084EE90E0F501EE0FFF1FE80FF91F27903690F101E6
:143D6C0009948AE08A8384E1888328EC08E00E949F6A809107
:143D800052158F7391F08091C1008F7E8093C1000FE513E0AB
:143D94000E940DA98091C10080618093C10082E0809326158C
:143DA800D8C52090DC02222031F42EEE31E008E00E945B6AF9
:143DBC0005C02227332708E00E945B6A81E080932615C5C503
:143DD000809152158F73A9F008E00E94136A8091C1008F7EE6
:143DE4008093C1000FE513E00E940DA98091C10080618093F2
:143DF800C10082E080932615ACC508E00E940C6AA02E0130D6
:143E0C0009F0A5C52090DC02222021F483E0809326159DC547
:143E200084E18093261599C5809152158F7309F094C508E0C9
:143E34000E94AD2D5801B5012090DC022220F9F482E092E05E
:143E48008017910774F42EEE31E008E00E945B6A21E030E042
:143E5C0008E00E94B79781E08093261578C583E080932615DD
:143E70008AE08A8384E1888324E608E00E949F6A6CC5222443
:143E840033242616370674F42227332708E00E945B6A21E0FF
:143E980030E008E00E94B79781E08093261559C584E18093E9
:143EAC00261555C58AE08A8385E0888322E308E00E949F6A2E
:143EC00026E430E008E00E945B6A81E080932C1585E1809357
:143ED400261541C584E08A8385E088832EE104E00E949F6A1A
:143EE8002EE130E004E00E945B6A81E080932D1586E180932C
:143EFC0026152DC525E030E004E00E94B79787E180932615E6
:143F100024C524E130E004E00E945B6A81E080932D1525E099
:143F240030E004E00E94B79788E18093261513C50E9440290B
:143F38005801B5018AE08A8384E188832AEF08E00E949F6AD3
:143F4C009B0108E00E945B6A81E080932C1589E18093261509
:143F6000FCC48091C1008F7E8093C10020906716332439829B
:143F7400288229EA30E100ED13E00E940DA98091C100806180
:143F88008093C10084E08A838AE088832CE804E00E949F6AC8
:143F9C002227332704E00E945B6A22E330E006E00E94B79738
:143FB00083E080932615D1C425E030E008E00E94B7978BE15E
:143FC4008093261584E08A838AE088832CE804E00E949F6A12
:143FD8002CE231E004E00E945B6A81E080932D158CE1809335
:143FEC002615B5C42227332704E00E945B6A81E080932D1569
:144000008DE180932615A9C422E030E008E00E94B79784E134
:1440140080932615A0C42090DC02222009F106E00E94C69737
:14402800A02E0023D9F00E94EC2858010030010709F48FC433
:14403C002227332706E00E94B79700270E94E928222733277A
:1440500008E00E945B6A81E080932C1584E1809326157BC466
:14406400809109018470809331152227332708E00E945B6AEE
:1440780081E080932C1520902915222039F48093291522E3CC
:14408C0030E008E00E94B79784E0809326155FC42AE030E049
:1440A00008E00E94B79785E08093261556C4409109014470D8
:1440B4002090F606222009F09FC0442309F075C02090311527
:1440C800222009F070C080913315823088F424E630E008E0F0
:1440DC000E945B6A81E080932C15809133158F5F8093331512
:1440F00083E08093261531C480913415813050F48F5F8093C6
:14410400341522242092261581E08093251523C40E942D3790
:1441180020905915222091F00E94DD178091C1008F7E80932A
:14412C00C10025ED3EE00BEC13E00E940DA98091C100806199
:144140008093C1008091C1008F7E8093C10006E513E00E9464
:144154000DA9209164163091651600916216109163160E9475
:1441680040A9242E33243982288220913115332709E413E01B
:14417C000E940DA90AE913E00E940DA98091C10080618093D3
:14419000C1008AEF80935F1622242092E00281E080932505E1
:1441A4002092261520922515D6C3443009F0D3C3209031159C
:1441B800222009F0CEC38091C1008F7E8093C100242E3324CB
:1441CC003B822A822090311533243982288229E23DE00AE3AF
:1441E00013E00E940DA98091C10080618093C10086E0809380
:1441F400261540933115AFC386E080932615ABC384E08A835E
:144208008AE088832CE804E00E949F6A2CE231E004E00E94E5
:14421C005B6A87E0809326159AC32227332704E00E945B6AC9
:1442300088E08093261591C300915F1601500E94DA1884E021
:144244008A838AE088832CE804E00E949F6A80914E169091AB
:144258004F168130E0E09E07B9F420904D16222061F42DE86B
:14426C0030E004E00E945B6A81E080932D1589E08093261576
:144280006CC322242092E0028AE08093261565C32AE430E023
:1442940004E00E945B6A81E080932D1522242092261586E07C
:1442A8008093251556C38091C1008F7E8093C10020903215F2
:1442BC0033243982288221E73DE000ED13E00E940DA98091C4
:1442D000C10080618093C1008EED80935F1622242092E00287
:1442E4008AE08093261537C380915F16893E09F032C3222790
:1442F800332704E00E945B6A81E080932D158BE0809326159E
:14430C0026C327EE3FEF04E00E945B6A81E080932D1586E00A
:144320008093251522242092261517C38091C1008F7E80933D
:14433400C100209032153324398228822BE33DE000ED13E0F6
:144348000E940DA98091C10080618093C1008EEF80935F167D
:14435C0022242092E00287E080932515F8C280915F168F3FB1
:1443700009F0F3C222E330E004E00E94B79788E080932515ED
:14438400222420922615E7C2A0902615BB24C5018035E0E0C4
:144398009E0709F439C280E58A159B05BCF0C5018030E0E0EE
:1443AC009E070CF4D4C287E290E08A159B050CF4CEC280E2B8
:1443C00091E0F501EE0FFF1FE80FF91F27903690F10109944C
:1443D400C5018F36E0E09E0709F475C1BCC22090181C22200E
:1443E80009F0B7C281E08093181C80932615B1C281E08A8378
:1443FC0084E1888328EC01E00E949F6A222701E00E947F6AE8
:1444100084E18093261581E080932F159EC225E030E001E0D7
:144424000E94B79782E08093261595C22091601601E00E94E3
:144438007F6A81E080932F158EE18093261589C225E030E0B2
:14444C0001E00E94B7978FE18093261580C201E00E94529A1C
:144460005801B5010438E3E01E07B4F483E0809326158091AB
:14447400C1008F7E8093C1007983688322E833E100E313E0B7
:144488000E940DA98091C10080618093C10061C280E28093A9
:14449C0026158091C1008F7E8093C1007983688329EA35E10E
:1444B00000E313E00E940DA98091C10080618093C100809132
:1444C4002A158F5F80932A1582E020902A15821508F041C282
:1444D800222420922A1583E0809326158091C1008F7E8093F6
:1444EC00C1002090601633243982288229EF3BE100ED13E005
:144500000E940DA98091C10080618093C10025C2609160167A
:144514007727675E7F4F6E31E0E07E0714F06E517040262FB6
:1445280001E00E947F6A81E080932F1581E2809326150FC2D9
:14453C0025E030E001E00E94B79783E28093261506C20E9468
:144550009BA9A02E002369F42090060121FC09C02224209230
:14456400181C88E08093251520922615F4C184E08A8384E1E2
:14457800888328EC05E00E949F6A20E436E005E00E945B6A1A
:14458C0081E080932E1584E280932615E0C182E08A8384E13B
:1445A000888324E605E00E949F6A2227332705E00E945B6A73
:1445B40081E080932E1585E280932615CCC125E030E005E000
:1445C8000E94B79786E280932615C3C102E00E94529A5801EC
:1445DC00B5010438E3E01E0764F42091601601E00E947F6A06
:1445F00081E080932F158EE180932615AEC1222701E00E9407
:144604007F6A81E080932F1580E2809326158091C1008F7E72
:144618008093C10080912B15992702969B838A8320906016C0
:14462C003324398228822CEF3DE00AE313E00E940DA980913D
:14464000C10080618093C10080912B158F5F80932B1582E0FC
:1446540020902B15821508F07EC1222420922B1587E28093E0
:1446680026158091C1008F7E8093C100209060163324398218
:14467C0028822DED3BE100ED13E00E940DA98091C10080615F
:144690008093C10062C12091601601E00E947F6A81E0809318
:1446A4002F1583E08093261556C1222420922A1520922B15CD
:1446B80025E030E004E00E94B7978FE68093261548C121E038
:1446CC0001E00E94EA2FA02E002321F484E0809326153DC188
:1446E00081E08093261539C120E436E004E00E945B6A8091A7
:1446F400C1008F7E8093C10009E113E00E940DA98091C10009
:1447080080618093C10081E080932D1587E0809326151FC19D
:14471C0084E08A838AE088832CED04E00E949F6A8091C10029
:144730008F7E8093C10004E013E00E940DA98091C1008061B2
:144744008093C1002227332704E00E945B6A81E080932D15E9
:1447580020902915222039F48093291522E330E004E00E9404
:14476C00B7978CE080932615F2C02227332704E00E945B6A91
:1447800021E030E004E00E94B79781E080932D158DE080930A
:144794002615E1C02227332704E00E945B6A21E030E004E052
:1447A8000E94B79781E080932D158BE080932615D0C004E02A
:1447BC000E94AD2D5801B5010030010749F02227332704E066
:1447D0000E945B6A81E080932D15BFC02090F606222021F436
:1447E40080E58093261503C088E0809326158091C1008F7EB6
:1447F8008093C1000BEE12E00E940DA98091C10080618093D0
:14480C00C100A5C04091090144708091C1008F7E8093C10030
:14482000242E33243B822A82209031153324398228822AEEA8
:1448340030E10AE313E00E940DA98091C10080618093C100A0
:14484800443079F480913115843059F42227332701E00E94FD
:14485C005B6A81E080932F158093261578C088E0809326158F
:1448700074C089E08093261522242092181C009160161127DE
:144884000E94FF9E81E08093250581EC9DE1E0916016FF274B
:14489800E80FF91F2080222039F4E0916016FF27E80FF91FD2
:1448AC008FEF80838091C1008F7E8093C1002EEB30E105EEA7
:1448C00012E00E940DA9109160160DE0010384E79AE1F001BB
:1448D400E80FF91F00811181228133810E9440A9A090601626
:1448E80081EC9DE1EA2DFF27E80FF91F208033243982288229
:1448FC002A2D332709E413E00E940DA98091C10080618093F9
:14491000C1008AE08A8384E1888328EC08E00E949F6A1BC069
:1449240020EB31E008E00E945B6A81E080932C158AE08093E2
:1449380026150FC020905915222011F00E94FE172224209251
:14494C002615209225152092291501E001C0002724960E941B
:144960009EAE229608950E9497AE239708E00E94C6970023F7
:1449740011F0002705C404E00E94C697002311F00027FEC34F
:1449880020903A15222059F008E00E940C6A402F013011F0F0
:14499C000027F2C3222420923A1520903B15222059F004E075
:1449B0000E940C6A402F013011F00027E3C3222420923B1525
:1449C40020903C15222059F001E00E940C6A402F013011F0B9
:1449D8000027D4C3222420923C154091351555274030450771
:1449EC0039F14130E0E05E0709F496C04230E0E05E0709F410
:144A000029C14330E0E05E0709F4C3C14530E0E05E0709F408
:144A140074C24030E0E05E070CF4B1C34336E0E05E07A1F020
:144A28004436E0E05E07F9F04536E0E05E0709F464C0A3C3CB
:144A3C0004E00E94FA6A81E080933B1583E68093351599C396
:144A500084E68093351508E00E94FA6A2AE030E008E00E94F9
:144A6400B79781E080933A158AC38BE495E1E0915F16FF27EF
:144A7800E80FF91F40812090F6062220B1F54831B9F40E94FE
:144A8C002D378091C1008F7E8093C10020915F16332704E893
:144AA00013E00E940DA98091C10080618093C10085E68093B2
:144AB400351522C04931A9F48091C1008F7E8093C100209147
:144AC8005F16332707E713E00E940DA98091C100806180930C
:144ADC00C10085E6809335150BC081E0809335158093E002BF
:144AF00005C081E0809335158093E00240933D1540C38BE4A3
:144B040095E1E0915F16FF27E80FF91F408120903D154215F2
:144B180009F433C384E6809335152FC34091361555274030D5
:144B2C00450781F04130E0E05E0709F43AC04230E0E05E0794
:144B400009F459C04330E0E05E0709F477C019C38EEE91E0B6
:144B540090933815809337158AE08A8384E1888328EC08E09B
:144B68000E949F6A809152158F7391F08091C1008F7E8093A1
:144B7C00C1000FE613E00E940DA98091C10080618093C1009D
:144B900082E080933615F5C2209137153091381508E00E9405
:144BA4005B6A81E080933615EAC2809152158F73A9F008E0D2
:144BB8000E94136A8091C1008F7E8093C1000FE613E00E948D
:144BCC000DA98091C10080618093C10082E080933615D1C245
:144BE00008E00E940C6A402F013009F0CAC283E080933615DB
:144BF400C6C2809152158F7309F0C1C208E00E94AD2DA80122
:144C08004B5F5F4F2090371530903815421553056CF4910196
:144C1C0008E00E945B6A21E030E008E00E94B79781E08093D8
:144C30003615A7C283E080933615A3C22AE030E008E00E94F2
:144C4400B79722242092361582E08093351597C26091361577
:144C580077276030670781F06130E0E07E0709F43DC06230D9
:144C6C00E0E07E0709F45CC06330E0E07E0709F47BC081C283
:144C8000809152158F7391F08091C1008F7E8093C10007E685
:144C940013E00E940DA98091C10080618093C10082E08093C5
:144CA80036156BC200915F160E9472185801B0923815A09234
:144CBC0037158AE08A8384E1888328EC08E00E949F6A209159
:144CD00037153091381508E00E945B6A81E0809336154FC257
:144CE400809152158F73A9F08091C1008F7E8093C10008E00E
:144CF8000E94136A07E613E00E940DA98091C100806180938B
:144D0C00C10082E08093361536C208E00E940C6A602F01305A
:144D200009F02FC283E0809336152BC2809152158F7309F074
:144D340026C208E00E94AD2DB801AB014B5F5F4F2090371566
:144D480030903815421553056CF4910108E00E945B6A21E059
:144D5C0030E008E00E94B79781E0809336150BC283E0809359
:144D7000361507C204E00E94FA6A25E030E008E00E94B79744
:144D840022242092361583E080933515F8C160913615772785
:144D98006030670709F42EC06130E0E07E0709F43EC06230BB
:144DAC00E0E07E0709F440C06330E0E07E0709F44EC064303A
:144DC000E0E07E0709F455C06530E0E07E0709F45CC06630FF
:144DD400E0E07E0709F463C06730E0E07E0709F46AC06830CB
:144DE800E0E07E0709F46EC06930E0E07E0709F478C0C3C1B0
:144DFC0001E00E94A0188AE08A83888320E108E00E949F6A52
:144E10002EE93FEF08E00E942C6A81E080933A158093361508
:144E2400AEC100270E94A01882E080933615A7C18AE08A83EB
:144E3800888324E608E00E949F6A2FEC3EEF08E00E942C6A56
:144E4C0081E080933A1587E08093361594C126E530E008E072
:144E60000E942C6A81E080933A1584E08093361588C12AEA24
:144E74003FEF08E00E942C6A81E080933A1585E08093361556
:144E88007CC123E630E008E00E942C6A81E080933A1586E077
:144E9C008093361570C12AE63FEF08E00E942C6A81E08093A1
:144EB0003A1587E08093361564C12AE030E008E00E94B797C3
:144EC40088E0809336155BC102E00E94A01820E431E008E0BF
:144ED8000E942C6A81E080933A1589E0809336154CC10027D0
:144EEC000E94A01822242092361585E08093351542C160915F
:144F0000361577276030670709F42EC06130E0E07E0709F4F8
:144F140050C06230E0E07E0709F477C06430E0E07E0709F498
:144F280093C06530E0E07E0709F4A2C06630E0E07E0709F411
:144F3C00B6C06730E0E07E0709F4C2C06830E0E07E0709F4B6
:144F5000CBC06930E0E07E0709F4D5C06A30E0E07E0709F476
:144F6400EEC00DC18AE08A8384E1888328EC08E00E949F6A2F
:144F7800809152158F7391F08091C1008F7E8093C1000FE583
:144F8C0013E00E940DA98091C10080618093C10082E08093CA
:144FA0003615EFC02227332708E00E945B6A81E08093361552
:144FB400E6C0809152158F73A9F008E00E94136A8091C10057
:144FC8008F7E8093C1000FE513E00E940DA98091C100806102
:144FDC008093C10082E080933615CDC008E00E940C6A602F11
:144FF000013009F0C6C084E0809336158AE08A8385E0888354
:1450040022E308E00E949F6ABAC0809152158F7309F0B5C09E
:1450180008E00E94AD2D5801A501222433242016310674F4AF
:14502C002227332708E00E945B6A21E030E008E00E94B79795
:1450400081E0809336159DC084E08093361599C08AE08A83AE
:1450540085E0888322E308E00E949F6A26E430E008E00E949C
:145068005B6A81E080933A1585E08093361585C084E08A8333
:14507C0085E088832EE104E00E949F6A27E330E004E00E9472
:145090005B6A81E080933B1586E08093361523E030E008E0C4
:1450A4000E94B7976CC024E130E004E00E945B6A81E0809308
:1450B8003B1587E08093361523E030E008E00E94B7975BC0C9
:1450CC00D9D05801A5019A0108E00E945B6A81E080933A157B
:1450E00088E0809336154DC084E08A838AE088832CE804E00B
:1450F4000E949F6A04E00E94FA6A89E0809336153EC080913D
:14510800C1008F7E8093C1002090671633243982288229EAF5
:14511C0030E100ED13E00E940DA98091C10080618093C100AF
:1451300022E330E008E00E94B7978AE08093361520C0222490
:145144002092361520923515209239152092E0028091C100F8
:145158008F7E8093C1002090671633243982288226EA3AE14E
:14516C0000ED13E00E940DA98091C10080618093C10001E08F
:1451800001C0002723960C949EAEAA92A02E2297AA2021F4EC
:1451940022242092DC0203C081E08093DC028091C1008F7E3D
:1451A8008093C1002090DC023324398228822BE83EE000EDB7
:1451BC0013E00E940DA98091C10080618093C1002296A9901C
:1451D00008950093DD0208950091DD0208951A930A9323970E
:1451E4002B80222091F481E090E0998388839E012E5F3F4F93
:1451F8000DEC10E00E942AAF0A81112707FD10950F5C1E4FFB
:14520C0037C084E62B80821574F0822D8E3C5CF081E090E0F1
:14522000998388839E012D5F3F4F0DEC10E00E9445AF81E0BA
:1452340090E0998388839E012E5F3F4F0DEC10E00E942AAFB1
:1452480084E62A8082151CF0822D8E3C6CF422242A8281E06F
:14525C0090E0998388839E012E5F3F4F0DEC10E00E9445AF6E
:145270000A81112707FD10950F5C1E4F25960895239781E073
:1452840090E0998388839E012E5F3F4F0DEC10E00E942AAF61
:1452980084E62A8082151CF0822D8E3C6CF422242A8281E01F
:1452AC0090E0998388839E012E5F3F4F0DEC10E00E9445AF1E
:1452C0000A81112707FD10950F5C1E4F239608950E9483AE6D
:1452D400239708E00E94C697002311F000275DC020904315B5
:1452E800222051F008E00E940C6A013011F0002752C022247E
:1452FC00209243154091421555274030450769F04130E0E0AA
:145310005E0709F14230E0E05E0791F14330E0E05E07B9F1CF
:145324003BC08AE08A8384E1888328EC08E00E949F6A2227A3
:14533800332708E00E945B6A81E0809343158093421525E07D
:14534C0030E008E00E94B79723C094DF58018AE08A8384E1DA
:1453600088832AEF08E00E949F6A950108E00E945B6A81E03C
:145374008093431582E0809342150EC025E030E008E00E9481
:14538800B79783E08093421505C022242092421501E001C040
:14539C00002723960C9488AE06E615E1222706C02224F80117
:1453B00020820F5F1F4F23952831C0F308950E94B3AE402F98
:1453C40080916615823011F400274BC320906615222009F4F3
:1453D800E5DF60915A1577276030670749F16130E0E07E07F1
:1453EC0009F49FC16230E0E07E0709F49AC16330E0E07E0749
:1454000009F495C16430E0E07E0709F490C16530E0E07E0744
:1454140009F48BC16630E0E07E0709F486C16730E0E07E0740
:1454280009F481C16830E0E07E0709F47CC108C3433229F5BC
:14543C00222420925B1581E0809366152090F806222009F418
:14545000FBC220906A09222089F0222420926A0902E010E070
:145464000E940E9E042F11270E940E9E2090EC03240E2092AA
:14547800EC03E6C2042F11270E940E9EE1C2403380F189E3DD
:14548C00841768F180915B15843008F0D7C28CE595E1E091FA
:1454A0005B15FF27E80FF91F408380915B158F5F80935B159E
:1454B4002090F806222009F4C5C220906A09222069F022246C
:1454C80020926A09042F11270E940E9E2090EC03240E20926F
:1454DC00EC03B4C2042F11270E940E9EAFC2443209F056C0A8
:1454F00020905B15222021F18CE595E1E22DFF27E80FF91F09
:14550400222420820CE515E10E944B71109368150093671537
:1455180020906A092220B1F00BEE17E10E947E7158012090EE
:14552C006715309068152016310651F481E08093661506C04B
:145540002224332430926815209267152090F8062220C9F0A4
:1455540020906A09222069F0222420926A0904E210E00E94A2
:145568000E9E8091EC038C5D8093EC0308C000E210E00E945C
:14557C000E9E04E210E00E940E9E80915A158F5F80935A155B
:14559000222420925B1520927D1556C24D3009F089C02090D4
:1455A4005B15222099F18CE595E1E22DFF27E80FF91F222446
:1455B80020820CE515E10E944B716801D0926815C0926715E2
:1455CC0020906A092220D1F00BEE17E10E944B716801560196
:1455E00020906715309068152016310621F482E080936615DC
:1455F40010C022242092661504E010E00E940E9E00272FC226
:1456080082E08093661503C0222420926615222420927D15DE
:14561C0020925A1520925B152090F806222009F441C0209099
:145630006A092220A9F1222420926A090DE010E00E940E9E81
:1456440003E010E00E940E9E8091EC03835F8093EC03082F16
:1456580011270F7010700F5B1F4F0E940E9E0091EC03112729
:14566C00007F10701595079515950795159507951595079513
:145680000F5B1F4F0E940E9E0DE010E00E940E9E0AE010E0EB
:145694000E940E9E22242092EC0308C00DE010E00E940E9EDA
:1456A8000AE010E00E940E9E0027D9C1483009F0C7C120905C
:1456BC005B152220F9F0822D815080935B158CE595E1E091E4
:1456D0005B15FF27E80FF91F222420822090F806222009F44C
:1456E400B1C108E010E00E940E9E00E210E00E940E9E08E012
:1456F80010E00E940E9EA4C122242092661520927D15209292
:14570C005A1520925B152090F806222041F00DE010E00E9458
:145720000E9E0AE010E00E940E9E00279CC1403380F189E3CD
:14573400841768F180915B15853008F083C18CE595E1E091A3
:145748005B15FF27E80FF91F408380915B158F5F80935B15F3
:14575C002090F806222009F471C120906A09222069F0222416
:1457700020926A09042F11270E940E9E2090EC03240E2092C4
:14578400EC0360C1042F11270E940E9E5BC1443209F081C07C
:1457980020905B15222009F444C08CE595E1E22DFF27E80F87
:1457AC00F91F222420820CE515E10E944B71580189E695E166
:1457C000E0917D15FF27EE0FFF1FE80FF91FB182A08280911C
:1457D4007D158F5F80937D1580915A158F5F80935A15222466
:1457E80020925B152090F806222009F429C120906A0922204F
:1457FC0069F0222420926A0904E210E00E940E9E8091EC03B1
:145810008C5D8093EC0318C100E210E00E940E9E04E210E0CA
:145824000E940E9E0FC189E695E1E0917D15FF27EE0FFF1F29
:14583800E80FF91F222433243182208280917D158F5F8093B7
:14584C007D1580915A158F5F80935A1520925B152090F806F6
:14586000222009F4F1C020906A09222069F0222420926A091B
:1458740004E210E00E940E9E8091EC038C5D8093EC03E0C071
:1458880000E210E00E940E9E04E210E00E940E9ED7C04D32B2
:14589C00B1F420905B15222009F0D0C08DE280935C15822DC6
:1458B0008F5F80935B152090F806222009F4C4C0042F112797
:1458C4000E940E9EBFC04D3009F081C020905B152220E9F011
:1458D8008CE595E1E22DFF27E80FF91F222420820CE515E1C2
:1458EC000E944B71580189E695E1E0917D15FF27EE0FFF1FC8
:14590000E80FF91FB182A08280917D158F5F80937D15209049
:145914006A09222061F080916615813021F482E08093661537
:1459280007C022242092661503C082E0809366152224209286
:14593C005A1520925B152090F806222009F441C020906A09B5
:145950002220A9F1222420926A090DE010E00E940E9E03E0EE
:1459640010E00E940E9E8091EC03835F8093EC03082F11279E
:145978000F7010700F5B1F4F0E940E9E0091EC031127007FBF
:14598C001070159507951595079515950795159507950F5B05
:1459A0001F4F0E940E9E0DE010E00E940E9E0AE010E00E9490
:1459B4000E9E22242092EC0308C00DE010E00E940E9E0AE06F
:1459C80010E00E940E9E00274AC04830C9F520905B152220C4
:1459DC00F1F0822D815080935B158CE595E1E0915B15FF27E5
:1459F000E80FF91F222420822090F806222021F108E010E0D2
:145A04000E940E9E00E210E00E940E9E08E010E00E940E9EFA
:145A180017C022242092661520927D1520925A1520925B15A9
:145A2C002090F806222041F00DE010E00E940E9E0AE010E040
:145A40000E940E9E00270FC088E020905A15821510F48093D9
:145A54005A1588E020907D15821510F480937D1501E00C9464
:145A6800BCAE0E9497AE402F2090ED03222029F4433219F4E9
:145A7C0081E08093ED036091ED0377276030670769F061304B
:145A9000E0E07E0709F008C0042F91DCA02E002319F4222418
:145AA4002092ED030C949EAE4A93442715C003E0142F010319
:145AB80089ED95E1F001E80FF91F80EF808301038AED95E18B
:145ACC00F001E80FF91F8FEF9FE79183808343954F3048F319
:145AE0002224332430920B1620920A163092091620920816AF
:145AF4003092071620920616499108950E3110F00FEF07C076
:145B080083E995E1E02FFF27E80FF91F008108950091B215ED
:145B1C0008950091B1150895AA92A02E03E01A2D010389ED36
:145B300095E1F001E80FF91F80EF8083A9900895AA92A02E99
:145B440003E01A2D010389ED95E1F001E80FF91F0081A99079
:145B58000895AA92A02E03E01A2D01038AED95E1F001E80F8F
:145B6C00F91F00811181A990089583E0801708F403E083EBDD
:145B800095E1E02FFF27EE0FFF1FE80FF91F0081089583E0BB
:145B9400801708F403E084EB95E1E02FFF27EE0FFF1FE80F5B
:145BA800F91F0081089510930B1600930A1608952224332402
:145BBC0030920B1620920A1608951093091600930816089573
:145BD000222433243092091620920816089510930716009383
:145BE4000616089522243324309207162092061608950E946B
:145BF80097AE422FA02E2A978FEE93E0FE01369604E010E0C5
:145C0C00FA93EA939A938A930E94FCAE6A2D772760306707B1
:145C200009F42EC06130E0E07E0709F40EC16230E0E07E070C
:145C340009F409C16330E0E07E0709F404C16430E0E07E0722
:145C480009F4FFC06530E0E07E0709F4FAC06830E0E07E071E
:145C5C0009F4F5C06C30E0E07E0709F4F0C06D30E0E07E0712
:145C700009F424C16E30E0E07E0709F456C1A7C1642F7727AE
:145C840060306707A9F06130E0E07E0709F43AC06230E0E056
:145C98007E0709F45FC06330E0E07E0709F489C06430E0E0E5
:145CAC007E0709F4A2C08DC160910901647009F061E0809198
:145CC000C1008F7E8093C100CE010696E62FFF27EE0FFF1F6D
:145CD400E80FF91F208033243D822C82242E33243B822A8237
:145CE8002A2C3324398228822DEB3AE102E115E00E940DA933
:145CFC008091C10080618093C10063C160910601617009F027
:145D100061E08091C1008F7E8093C100CE010696E62FFF27E5
:145D2400EE0FFF1FE80FF91F208033243D822C82242E332434
:145D38003B822A822A2C3324398228822DEB3AE102E115E0D1
:145D4C000E940DA98091C10080618093C10039C10E949BA984
:145D6000002309F034C160910601627009F061E08091C10048
:145D74008F7E8093C100CE010696E62FFF27EE0FFF1FE80F82
:145D8800F91F208033243D822C82242E33243B822A822A2C23
:145D9C003324398228822DEB3AE102E115E00E940DA98091C3
:145DB000C10080618093C1000AC18091C1008F7E8093C100EB
:145DC40000270E94529A1D830C83242E33243B822A822A2C7F
:145DD8003324398228822DEB3AE10EEF14E00E940DA980916E
:145DEC00C10080618093C100ECC060910301607409F061E07E
:145E00008091C1008F7E8093C100CE010696E62FFF27EE0F38
:145E1400FF1FE80FF91F208033243D822C82242E33243B8283
:145E28002A822A2C3324398228822DEB3AE102E115E00E94FB
:145E3C000DA98091C10080618093C100C2C081E0841708F49B
:145E500041E08BEB95E12A2C3324220C331C280E391EE42F67
:145E6400FF27E20DF31D6081662309F061E08091C1008F7E82
:145E78008093C100CE010696E62FFF27EE0FFF1FE80FF91F72
:145E8C00208033243D822C82242E33243B822A822A2C3324DF
:145EA000398228822DEB3AE102E115E00E940DA98091C10054
:145EB40080618093C10089C082E0841708F442E083EB95E1DD
:145EC800E42FFF27EE0FFF1FE80FF91F80818F3011F461E05D
:145EDC0001C066278091C1008F7E8093C100CE010696E62F31
:145EF000FF27EE0FFF1FE80FF91F208033243D822C82242E98
:145F040033243B822A822A2C3324398228822DEB3AE102E1A1
:145F180015E00E940DA98091C10080618093C10052C084E02B
:145F2C00841708F444E086E495E1E42FFF27E80FF91F80817D
:145F4000843119F58091C1008F7E8093C10086E495E1E42FE4
:145F5400FF27E80FF91F208033243D822C82242E33243B823A
:145F68002A822A2C3324398228822DEB3AE10EEF14E00E94A1
:145F7C000DA98091C10080618093C10022C08091C1008F7E13
:145F90008093C1008CE495E1E42FFF27E80FF91F2080332404
:145FA4003D822C82242E33243B822A822A2C33243982288258
:145FB8002DEB3AE10EEF14E00E940DA98091C1008061809393
:145FCC00C1002A960C949EAE0E9497AE422F602F229766232B
:145FE00021F0663011F0673011F40FEFB2C081E0841708F401
:145FF40041E08091C1008F7E8093C10026E133E10BEF14E0BC
:146008000E940DA9A62EBB24C5018130E0E09E0709F438C0A8
:14601C008230E0E09E0709F438C08330E0E09E0709F438C057
:146030008430E0E09E0709F438C08530E0E09E0709F438C03F
:146044008830E0E09E0709F438C08930E0E09E0709F438C023
:146058008A30E0E09E0709F438C08B30E0E09E0709F438C00B
:14606C008C30E0E09E0709F438C08D30E0E09E0709F438C0F3
:146080008E30E0E09E0709F438C03BC00BEE14E00E940DA9B4
:1460940036C00CED14E00E940DA931C00BEC14E00E940DA989
